:020000040800F2
:1000000000500020650200086B0200086F02000823
:10001000E1020008E50200082D03000800000000CE
:100020000000000000000000000000007503000850
:1000300079030008000000007D0300088103000828
:100040009103000891030008910300089103000840
:100050009103000891030008910300089103000830
:100060009103000891030008910300089103000820
:100070009103000891030008910300089103000810
:100080009103000891030008910300089103000800
:1000900091030008910300089103000891030008F0
:1000A00091030008910300089103000891030008E0
:1000B00091030008910300089103000891030008D0
:1000C00091030008910300089103000891030008C0
:1000D00091030008910300089103000891030008B0
:1000E000910300089103000891030008000000003C
:1000F0000000000000000000000000000000000000
:1001000000000000000000009103000891030008B7
:10011000910300089103000891030008910300086F
:10012000910300089103000891030008910300085F
:100130009103000800000000000000009103000887
:10014000910300089103000891030008910300083F
:1001500000B583B000F038FA304B314A1360314AB1
:100160001360314B314A03E052F8041B43F8041B7F
:100170002F498B42F8D32A4B1A682E4B9A4200D053
:10018000FEE7284B1A682C4B9A42F9D1234B2B4A95
:1001900013602B4A13602B4B02E0002243F8042B20
:1001A000294A9342F9D3254B1B6813B9244B1B688A
:1001B00003B1FEE700F014FA694601A800F022F945
:1001C000224C234BE41AA410002504E0204B53F8E2
:1001D000253098470135AC42F8DC1E4C1E4BE41A22
:1001E000A410002504E01C4B53F825309847013536
:1001F000AC42F8DC0099019800F07CFB0546174CF6
:10020000174BE41AA41004E0013C154B53F82430BA
:100210009847002CF8DC284600F0D0F8BABADECABD
:10022000000000207400002000000020DC13000803
:1002300078000020785634123254769878000020E6
:10024000140100207800002018010020BC030008E1
:10025000BC030008BC030008BC030008BC03000882
:10026000BC03000808B5FFF773FF00BEFEE71EF0F1
:10027000040F0CBFEFF30880EFF309807146414A89
:1002800010472DE9F04182B004460D46124B5F6BDA
:10029000D3F838809E6A1B6B13F0020F03D00E4B0D
:1002A000DB6A002B0BDB0D4800F0EAF800954346B3
:1002B0003A463146204600F0FDF800BEFEE74BF618
:1002C000AB6100F071F90028EDD0034B4FF0004214
:1002D000DA6202B0BDE8F08100ED00E06C130008C6
:1002E00000BEFEE71EF0040F0CBFEFF30880EFF333
:1002F00009807146244A10472DE9F04182B0044636
:100300000D46084B5F6BD3F838809E6A064800F0B4
:10031000B7F8009543463A463146204600F0CAF801
:1003200000BEFEE700ED00E07C1300081EF0040FA5
:100330000CBFEFF30880EFF309807146134A1047B2
:100340002DE9F04182B004460D46084B5F6BD3F8AF
:1003500038809E6A064800F093F8009543463A4676
:100360003146204600F0A6F800BEFEE700ED00E0B2
:100370008813000800BEFEE700BEFEE700BEFEE7F1
:100380007047000083020008F902000841030008DA
:0403900000BEFEE7C6
:10039400DC1300080000002078000020DC130008B3
:1003A4000000000000000000780000201801002078
:0803B400000000000000000041
:1003BC00FEE7000008B503460C4A12685AB10B4A16
:1003CC001068033323F003030344094A934206D80D
:1003DC00064A136008BD054A06491160EFE700F0B4
:1003EC0097FA0C2303604FF0FF30F3E77C000020FA
:1003FC00004C00201801002001230360014B0B600E
:10040C00704700BF040000202DE9F04385B004467E
:10041C000F4643563BBB042528462146ABBE04463B
:10042C00384605B0BDE8F08314F901CB03F1100296
:10043C006A4402F810CC0133AB42F5D310336B4451
:10044C00002203F8102C4FF00408E94640464946B8
:10045C00ABBE8046761B002EE2D03546102E28BF50
:10046C0010250023E8E70E46F5E708B5FFF7CCFFAB
:10047C0008BD00000FB400B583B004AB53F8042BD7
:10048C0001938021074800F075FA002804DC03B0C2
:10049C005DF804EB04B0704701460248FFF7E5FF36
:1004AC00F5E700BF88000020F8B504460D46174656
:1004BC001E462748FFF7DEFF21682648FFF7DAFFC4
:1004CC0061682548FFF7D6FFA1682448FFF7D2FFE3
:1004DC00E1682348FFF7CEFF21692248FFF7CAFFE6
:1004EC0061692148FFF7C6FFA1692048FFF7C2FFE9
:1004FC00E1691F48FFF7BEFF1E48FFF7BBFF294607
:10050C001D48FFF7B7FF1D4CE16A1D48FFF7B2FF0E
:10051C00216B1C48FFF7AEFFE16B1B48FFF7AAFFEE
:10052C0015F0800F0AD115F4004F0CD11748FFF7C6
:10053C00A1FF06991648FFF79DFFF8BD39461548EF
:10054C00FFF798FFEFE731461348FFF793FFEDE70E
:10055C005012000860120008701200088012000887
:10056C0090120008A0120008B0120008C012000877
:10057C00D0120008E0120008EC12000800ED00E0B8
:10058C00FC1200080C1300081C1300084C13000884
:10059C00541300082C1300083C13000883691A88B4
:1005AC008A4201D0002070470268033A012A01D91F
:1005BC0000207047023383610120704708B500F0BA
:1005CC000DF8024A024B9A6008BD00BF00000008FB
:1005DC0000ED00E008B500F003F808BD704700001E
:1005EC002C4B5B6803F00C03042B14D0082B16D097
:1005FC001BB1294B294A1A6002E0274B274A1A6083
:10060C00244B5B68C3F30313254AD15C224A13685D
:10061C00CB4013607047204B204A1A60F0E71D4A0C
:10062C005368526802F48032C3F383430D2B07D016
:10063C0002333AB91B4A02FB03F3174A1360DFE794
:10064C000623F6E7134AD16AD26A02F00F0201328E
:10065C0011F4803F07D11149B1FBF2F202FB03F315
:10066C000D4A1360CCE70B48C16AC1F3031101F1C9
:10067C00010CC06AC0F3032002300849B1FBFCF145
:10068C0000FB01F1B1FBF2F202FB03F3024A13602F
:10069C00B6E700BF001002400C00002000127A00E8
:1006AC009813000800093D0010B4012827D0022837
:1006BC0046D008B110BC704707290FD8324B1868C8
:1006CC004FEA810C0F2101FA0CF120EA01011960AB
:1006DC00186802FA0CF101431960EBE71029E9D80C
:1006EC00294B5868083989000F248C4020EA0400F3
:1006FC005860586802FA01F101435960DAE707299A
:10070C000DD8224B1C6888000F21814024EA01017E
:10071C0019601C6802FA00F121431960CAE710291C
:10072C00C8D81A4B5868083989000F248C4020EA25
:10073C0004005860586802FA01F101435960B9E7A6
:10074C0007290FD8124B186889004FF00F0C0CFAC0
:10075C0001FC20EA0C001860186802FA01F1014350
:10076C001960A7E71029A5D8094B586808398900E2
:10077C000F248C4020EA04005860586802FA01F1FA
:10078C000143596096E700BF00080140000C01408E
:10079C0000100140012818D0022828D000B1704761
:1007AC0052B11C4BDA68012000FA01F11143D960F7
:1007BC004FF001121A6170471648C368012202FA01
:1007CC0001F123EA0101C16070473AB11248C368D4
:1007DC00012202FA01F11943C16070470E48C36847
:1007EC00012202FA01F123EA0101C16070473AB11A
:1007FC000A48C368012202FA01F11943C16070472B
:10080C000648C368012202FA01F123EA0101C16022
:10081C00C5E700BF00080140000C0140001001407A
:10082C001D4B002119601A6842F001021A601A6807
:10083C0042F080021A601A6842F480321A601A6818
:10084C001A601A6842F400221A601A6842F0807228
:10085C001A6059605A6842F001025A605A6842F0B4
:10086C0010025A605A6842F400625A605A6842F4A4
:10087C0080725A605A6842F480425A605A6842F454
:10088C0080325A605A685A605A685A605A6842F004
:10089C00C0625A60704700BF00100240012817D098
:1008AC0002280CD000B1704700F1804000F50430F4
:1008BC004369012202FA01F1194341617047094869
:1008CC0083693E39012202FA01F1194381617047B3
:1008DC000448C3692039012202FA01F11943C161AC
:1008EC00E1E700BF0010024008B5FFF799FF402177
:1008FC000220FFF7D3FF082202210020FFF7D4FECD
:10090C00012202210020FFF745FF002008BD000056
:10091C00014B1868704700BF1000002030B514461A
:10092C00002C05461A469BB005DA8B2303604FF06A
:10093C00FF301BB030BD4FF40273ADF80C300CBF60
:10094C00234604F1FF33029305934FF6FF73009196
:10095C000491ADF80E3069461E9B00F075F8431CEF
:10096C00BCBF8B232B60002CE3D00022009B1A70A1
:10097C00DFE7000007B5009313460A46014603481B
:10098C000068FFF7CBFF03B05DF804FB10000020FC
:10099C002DE9F0478E6882469E420C4690461F46D3
:1009AC0038D88A8912F4906F32D0256809690133DE
:1009BC00A5EB010965694B4405EB450505EBD575C0
:1009CC006D109D4238BF1D46530531D5294600F0A8
:1009DC006FFB064650B90C234FF0FF30CAF80030BD
:1009EC00A38943F04003A381BDE8F0874A462169FF
:1009FC0000F0CEFAA38923F4906343F08003A38123
:100A0C0026614E4426603E466561A5EB0905A5604E
:100A1C00BE4200D93E4632464146206800F0C6FA36
:100A2C00A36800209B1BA360236833442360DBE78F
:100A3C002A4600F0B1FB06460028E1D15046216958
:100A4C0000F0CEFAC7E700002DE9F04F98468B89ED
:100A5C0007461B060D4614469DB00ED50B6963B9AF
:100A6C00402100F025FB2860286120B90C233B6055
:100A7C004FF0FF30D1E040236B610023099320231A
:100A8C008DF8293030234FF00109CDF80C80DFF8B8
:100A9C00A4818DF82A3023469A4613F8012B0AB10B
:100AAC00252AF9D1BAEB040B0BD05B46224629461A
:100ABC003846FFF76DFF013000F0AA80099A5A44BE
:100ACC0009929AF80030002B00F0A28000234FF01E
:100ADC00FF32CDE905230AF1010A049307938DF83F
:100AEC0053301A935446052214F8011B514800F058
:100AFC0041FA049AD8B9D00644BF20238DF853305C
:100B0C00110744BF2B238DF853309AF800302A2B51
:100B1C0015D0544600204FF00A0C079A214611F8C4
:100B2C00013B303B092B4ED9B0B1079214E0A0EB3E
:100B3C00080309FA03F31343A2460493D2E7039B79
:100B4C00191D1B680391002BBBBF5B4242F00202D4
:100B5C0007930793B8BF049223782E2B0CD163789C
:100B6C002A2B35D1039B02341A1D1B680392002BD0
:100B7C00B8BF4FF0FF330593DFF8BCA003225046FB
:100B8C00217800F0F7F940B14023A0EB0A0003FAFA
:100B9C0000F0049B01340343049314F8011B062258
:100BAC0026488DF8281000F0E5F9002838D0244BA1
:100BBC001BBB039B073323F0070308330393099BE9
:100BCC003344099367E70C4601200CFB0232A5E77E
:100BDC0000234FF00A0C194601340593204610F8F7
:100BEC00012B303A092A03D9002BC5D00591C3E754
:100BFC00044601230CFB0121F0E703AB00932A46CA
:100C0C003846104B04A9AFF30080421C0646D6D1DF
:100C1C00AB895B063FF52CAF09981DB0BDE8F08F92
:100C2C0003AB00932A463846064B04A900F07CF827
:100C3C00EBE700BFA8130008AE130008B2130008BE
:100C4C00000000009D0900082DE9F0471646994662
:100C5C008A680B6907469342B8BF1346336091F814
:100C6C0043200C46DDF820800AB101333360236841
:100C7C00990642BF336802333360256815F00605C8
:100C8C0006D104F1190AE36832689B1AAB4228DCDE
:100C9C0094F84320131E226818BF012392062DD40A
:100CAC004946384604F14302C047013020D023683E
:100CBC00E56803F00603042B18BF002532684FF0DB
:100CCC000006A36808BFAD1A226908BF25EAE575BE
:100CDC009342C4BF9B1AED181A34B5421AD10020A6
:100CEC0008E00123524649463846C047013003D13B
:100CFC004FF0FF30BDE8F0870135C4E73020E11834
:100D0C0081F843005A1C94F845102244023382F8AF
:100D1C004310C5E70123224649463846C0470130F7
:100D2C00E6D00136D9E700002DE9FF470F7E91464A
:100D3C00782F80460C469A460C9D01F1430207D849
:100D4C00622F0AD8002F00F0D980582F00F0A48011
:100D5C0004F1420584F842703AE0A7F16303152BC5
:100D6C00F6D801A151F823F0CD0D0008E10D0008D3
:100D7C005D0D00085D0D00085D0D00085D0D00089F
:100D8C00E10D00085D0D00085D0D00085D0D00080B
:100D9C005D0D0008EF0E0008110E0008D10E0008C2
:100DAC005D0D00085D0D0008110F00085D0D0008B9
:100DBC00110E00085D0D00085D0D0008D90E00082D
:100DCC002B681A1D1B682A6004F1420584F8423016
:100DDC000123A4E020682968060601F104030AD562
:100DEC000E682B60002E03DA2D23764284F84330F4
:100DFC000A235E4819E00E6810F0400F2B6018BFF4
:100E0C0036B2EFE72B682068191D2960010601D561
:100E1C001E6802E04606FBD51E886F2F0CBF082308
:100E2C000A235248002184F843106568002DA8BF9E
:100E3C002168A560A4BF21F0040121600EB9002D2A
:100E4C004DD01546B6FBF3F103FB1167C75D05F8F2
:100E5C00017D3746BB420E46F4D9082B0BD12368D3
:100E6C00DE0708D5236961689942DEBF302305F897
:100E7C00013C05F1FF35521B22614B462146404691
:100E8C00CDF800A003AAFFF7DFFE01304CD14FF0E4
:100E9C00FF3004B0BDE8F087344881F8457029680C
:100EAC00236851F8046B29601D0614D5DF0744BF75
:100EBC0043F0200323601EB9236823F02003236032
:100ECC001023AFE7236843F02003236078232848DE
:100EDC0084F84530E3E7590648BFB6B2E6E7154655
:100EEC00BBE72B682668181D6169286035061B68EE
:100EFC0001D5196002E07006FBD519800023154658
:100F0C002361BAE72B6800211A1D2A601D686268EC
:100F1C00284600F02FF808B1401B6060636823611D
:100F2C00002384F84330A8E72A4649464046236903
:100F3C00D0470130ABD023689B0713D4E068039BE8
:100F4C009842B8BF1846A4E70123324649464046AA
:100F5C00D04701309BD00135E36803995B1AAB4253
:100F6C00F2DCEBE7002504F11906F5E7B9130008EC
:100F7C00CA130008034610B5C9B20244934218467E
:100F8C0001D1002003E0047801338C42F6D110BD6E
:100F9C000A44914200F1FF3300D1704710B511F8AB
:100FAC00014B914203F8014FF9D110BD884210B5A5
:100FBC0001EB020402D98442234607D8431EA14206
:100FCC0008D011F8012B03F8012FF8E70146024471
:100FDC008A4200D110BD13F8014D02F8014DF7E71C
:100FEC0038B50546002940D051F8043C0C1F002BA5
:100FFC00B8BFE41800F010F91C4A136833B96360E9
:10100C0014602846BDE8384000F00CB9A34208D95A
:10101C00206821188B4201BF19685B680918216090
:10102C00EDE71A465B680BB1A342FAD91168501868
:10103C00A0420BD120680144501883421160E0D1CA
:10104C0018685B68014411605360DAE702D90C231D
:10105C002B60D6E7206821188B4201BF19685B68AA
:10106C000918216063605460CBE738BD080100208B
:10107C0070B50E4E0C463168054611B900F0BCF83F
:10108C0030602146284600F0B7F8431C0AD0C41C37
:10109C0024F00304A04207D0211A284600F0ACF833
:1010AC00013001D14FF0FF34204670BD0C010020FF
:1010BC002DE9F041CD1C25F0030508350C2D38BF6A
:1010CC000C25002D074601DBA94205D90C2300266F
:1010DC003B603046BDE8F0812E4E00F09DF8336841
:1010EC001C4634BB29463846FFF7C2FF431C044656
:1010FC004DD134682646002E40D1236831463846FF
:10110C0004EB030800F078F880453AD121680335E8
:10111C006D1A25F0030508350C2D38BF0C25384603
:10112C002946FFF7A5FF01302BD023682B44236001
:10113C000EE02268521B1ED40B2A16D96119A34249
:10114C00256018BF5960636808BF316062514B60FD
:10115C00384604F10B0600F065F826F00706231D4F
:10116C00F21AB6D09B1BA350B3E76268A3420CBF24
:10117C0032605A60ECE723466468B2E7344676681E
:10118C00B9E70C2338463B6000F04CF8A1E725602A
:10119C00DEE700BF080100202DE9F041804614462F
:1011AC000E4621B91146BDE8F041FFF781BF2AB9BF
:1011BC00FFF716FF25462846BDE8F08100F038F809
:1011CC008442074602D8B4EB500F12D82146404651
:1011DC00FFF76EFF05460028EDD0BC422246314693
:1011EC0028BF3A46FFF7D4FE31464046FFF7F8FEDB
:1011FC00E1E73546DFE7000038B50023054D04462E
:10120C0008462B60FFF7D6F8431C02D12B6803B1BC
:10121C00236038BD80000020014800F011B800BFE9
:10122C0010010020014800F00CB800BF1001002094
:10123C0051F8043C181F002BBCBF0B58C01870474A
:10124C0070477047537461636B206672616D653AC9
:10125C000A000000205230203D2020253038580A4A
:10126C0000000000205231203D2020253038580A43
:10127C0000000000205232203D2020253038580A32
:10128C0000000000205233203D2020253038580A21
:10129C000000000020523132203D20253038580A01
:1012AC0000000000204C52203D2020253038580AE8
:1012BC0000000000205043203D2020253038580AE3
:1012CC000000000020505352203D20253038580A91
:1012DC00000000004653522F4641523A0A000000CB
:1012EC002043465352203D2020253038580A000018
:1012FC002048465352203D2020253038580A000003
:10130C002044465352203D2020253038580A0000F6
:10131C002041465352203D2020253038580A0000E9
:10132C00204D4D464152203D20253038580A0000B2
:10133C002042464152203D2020253038580A0000DA
:10134C004D6973630A000000204C522F4558435FCF
:10135C0052455455524E3D20253038580A00000055
:10136C005B486172644661756C745D0A0000000034
:10137C005B4275734661756C745D0A005B557361F5
:10138C0067654661756C745D0A0000000000000022
:10139C00000000000102030406070809232D302B6E
:1013AC002000686C4C00656667454647003031325A
:1013BC0033343536373839414243444546003031B1
:0F13CC0032333435363738396162636465660011
:1013DC007856341284000020000000000024F40031
:1013EC0014000020000000000000000000000000BD
:1013FC0000000000000000000000000000000000E1
:10140C0000000000000000000000000000000000D0
:10141C0000000000000000000000000000000000C0
:10142C0000000000000000000000000000000000B0
:10143C0000000000000000000000000000000000A0
:08144C00000000003254769804
:04000005080001519D
:00000001FF
