:020000040800F2
:100000000050002021020008270200082B020008EF
:100010009D020008A1020008E9020008000000009B
:100020000000000000000000000000003103000894
:100030003503000800000000390300083D030008F4
:100040004D0300084D0300084D0300084D03000850
:100050004D0300084D0300084D0300084D03000840
:100060004D0300084D0300084D0300084D03000830
:100070004D0300084D0300084D0300084D03000820
:100080004D0300084D0300084D0300084D03000810
:100090004D0300084D0300084D0300084D03000800
:1000A0004D0300084D0300084D0300084D030008F0
:1000B0004D0300084D0300084D0300084D030008E0
:1000C0004D0300084D0300084D0300084D030008D0
:1000D0004D030008290A00084D0300084D030008DD
:1000E0004D0300084D0300084D0300080000000008
:1000F0000000000000000000000000000000000000
:1001000000000000000000005FF808F100B583B0B7
:1001100000F0AEF9304B314A1360314A1360314B75
:10012000314A03E052F8041B43F8041B2F498B4269
:10013000F8D32A4B1A682E4B9A4200D0FEE7284B80
:100140001A682C4B9A42F9D1234B2B4A13602B4A45
:1001500013602B4B02E0002243F8042B294A934200
:10016000F9D3254B1B6813B9244B1B6803B1FEE779
:1001700000F08AF9694601A800F022F9224C234BCD
:10018000E41AA410002504E0204B53F825309847CA
:100190000135AC42F8DC1E4C1E4BE41AA4100025BD
:1001A00004E01C4B53F8253098470135AC42F8DC8D
:1001B0000099019800F078FC0546174C174BE41A9B
:1001C000A41004E0013C154B53F824309847002C50
:1001D000F8DC284600F0D0F8BABADECA00000020E9
:1001E0008400002000000020A415000888000020E2
:1001F0007856341232547698880000202C01002062
:1002000088000020300100207803000878030008EF
:1002100078030008780300087803000878030008D2
:1002200008B5FFF773FF00BEFEE71EF0040F0CBF1A
:10023000EFF30880EFF309807146414A10472DE93A
:10024000F04182B004460D46124B5F6BD3F8388004
:100250009E6A1B6B13F0020F03D00E4BDB6A002B60
:100260000BDB0D4800F0B4F8009543463A463146A2
:10027000204600F00DF900BEFEE74BF6AB6100F042
:1002800081F90028EDD0034B4FF00042DA6202B052
:10029000BDE8F08100ED00E04415000800BEFEE777
:1002A0001EF0040F0CBFEFF30880EFF309807146D6
:1002B000244A10472DE9F04182B004460D46084B10
:1002C0005F6BD3F838809E6A064800F081F800958D
:1002D00043463A463146204600F0DAF800BEFEE7D3
:1002E00000ED00E0541500081EF0040F0CBFEFF302
:1002F0000880EFF309807146134A10472DE9F04159
:1003000082B004460D46084B5F6BD3F838809E6A76
:10031000064800F05DF8009543463A4631462046CF
:1003200000F0B6F800BEFEE700ED00E06015000842
:1003300000BEFEE700BEFEE700BEFEE7704700001D
:100340003F020008B5020008FD02000800BEFEE7FB
:10035000A41500080000002088000020A415000853
:100360000000000000000000880000203001002094
:08037000000000000000000085
:10037800FEE7000008B503460C4A12685AB10B4A5A
:100388001068033323F003030344094A934206D851
:10039800064A136008BD054A06491160EFE700F0F8
:1003A800A5FB0C2303604FF0FF30F3E78C0000201F
:1003B800004C00203001002001230360014B0B603A
:1003C800704700BF040000200FB400B583B004AB31
:1003D80053F8042B01938021074800F0B9FB00284B
:1003E80004DC03B05DF804EB04B070470146024832
:1003F80000F035F8F5E700BF980000202DE9F0433C
:1004080085B004460F4643563BBB04252846214683
:10041800ABBE0446384605B0BDE8F08314F901CBFD
:1004280003F110026A4402F810CC0133AB42F5D351
:1004380010336B44002203F8102C4FF00408E946EF
:1004480040464946ABBE8046761B002EE2D0354674
:10045800102E28BF10250023E8E70E46F5E708B55B
:10046800FFF7CCFF08BD000008B500F0FDF8024A10
:10047800024B9A6008BD00BF0000000800ED00E0D4
:1004880008B500F019F908BDF8B504460D46174639
:100498001E462748FFF798FF21682648FFF794FF74
:1004A80061682548FFF790FFA1682448FFF78CFF93
:1004B800E1682348FFF788FF21692248FFF784FF96
:1004C80061692148FFF780FFA1692048FFF77CFF99
:1004D800E1691F48FFF778FF1E48FFF775FF2946B7
:1004E8001D48FFF771FF1D4CE16A1D48FFF76CFFBF
:1004F800216B1C48FFF768FFE16B1B48FFF764FF9F
:1005080015F0800F0AD115F4004F0CD11748FFF7EA
:100518005BFF06991648FFF757FFF8BD394615489F
:10052800FFF752FFEFE731461348FFF74DFFEDE7BE
:100538002814000838140008481400085814000843
:100548006814000878140008881400089814000833
:10055800A8140008B8140008C414000800ED00E04E
:10056800D4140008E4140008F41400082415000842
:100578002C150008041500081415000883691A884A
:100588008A4201D0002070470268033A012A01D943
:1005980000207047023383610120704782B0002336
:1005A800019300932C4A136843F4803313602A4B59
:1005B8001B6803F400330093019B01330193009BF4
:1005C8001BB9019BB3F5A06FF1D1234B1B6813F442
:1005D800003F06D001230093009B012B04D002B0FA
:1005E800704700230093F7E71C4B1A6842F010028B
:1005F8001A601A6822F003021A601A6842F00202AE
:100608001A60A3F580535A685A605A685A605A6843
:1006180042F480625A605A6822F47C125A605A681E
:1006280042F4E8125A601A6842F080721A600A4B63
:100638001B6813F0007FFAD0074B5A6822F00302B8
:100648005A605A6842F002025A60034B5B6803F032
:100658000C03082BF9D1C2E7001002400020024029
:1006680008B5FFF79BFF08BD08B5104B1A6842F0A4
:1006780001021A6059680E4A0A405A601A6822F044
:10068800847222F480321A601A6822F480221A6076
:100698005A6822F4FE025A604FF41F029A60FFF76C
:1006A800DFFF044B4FF000629A6008BD0010024063
:1006B8000000FFF800ED00E01F4B5B6803F00C033F
:1006C800042B15D0082B17D01BB11C4B1C4A1A60E1
:1006D80002E01A4B1A4A1A60174B5B68C3F30313FC
:1006E800184AD35CDAB215490B68D3400B607047DF
:1006F800124B134A1A60EFE70F4A53685268C3F364
:100708008343023312F4803F05D10F4A02FB03F3FF
:100718000A4A1360E0E7084A526812F4003F05D01D
:10072800094A02FB03F3054A1360D5E7044A02FBB2
:1007380003F3024A1360CFE7001002401C000020B8
:1007480000127A000C00002000093D001D4B00211A
:1007580019601A6842F001021A601A6842F08002B1
:100768001A601A6842F480321A601A681A601A68A5
:1007780042F400221A601A6842F080721A60043348
:1007880019601A6842F001021A601A6842F01002F1
:100798001A601A6842F400621A601A6842F4807299
:1007A8001A601A6842F480421A601A6842F4803269
:1007B8001A601A681A601A681A601A6842F0C062E9
:1007C8001A60704700100240012814D010B10228A6
:1007D80008D070470C480368012202FA01F1194356
:1007E80001607047094803683E39012202FA01F1A5
:1007F800194301607047064803682039012202FA4C
:1008080001F11943016070471410024018100240AA
:100818001C100240014B024A1A6070470CED00E0C0
:100828000005FA0570B4012825D018B1022844D073
:1008380070BC7047072910D91029F9D82F4B586870
:1008480008398E000F21B14020EA0101596058682B
:1008580002FA06F101435960EAE7284B18688D004F
:100868000F21A94020EA01011960186802FA05F170
:1008780001431960DCE7072911D91029D8D8204885
:100888004468A1F108039B000F21994024EA010163
:100898004160446802FA03F121434160C8E7184BFC
:1008A80018688C000F21A14020EA0101196018681E
:1008B80002FA04F101431960BAE7072910D910298F
:1008C800B6D8104B5868083989000F248C4020EAA4
:1008D80004005860586802FA01F101435960A7E71B
:1008E800084B1C6888000F21814024EA0101196027
:1008F8001C6802FA00F12143196099E700080140D9
:10090800000C014000100140012810D010B102284D
:100918001AD070472AB1012303FA01F1114B19616A
:100928007047012303FA01F10E4B596170472AB150
:10093800012303FA01F10C4B19617047012303FAF3
:1009480001F1094B596170472AB9012303FA01F1F2
:10095800064B59617047012303FA01F1034B5961B2
:10096800704700BF00080140000C01400010014022
:10097800144BDA6842F40052DA60DA6822F48052E2
:10098800DA601A6922F480521A611A6922F4005254
:100998001A6140F241329A60DA6842F00802DA607D
:1009A800DA6842F08002DA60DA6842F04002DA601F
:1009B800DA6842F00402DA60DA6842F08002DA604B
:1009C800704700BF00380140034B1B6813F0800FCD
:1009D800FAD0014B5860704700380140034A136849
:1009E80013F8010B02494860136070471C0100208E
:1009F80000380140044B1B6813F0200FFAD0024B5B
:100A08005868C0B2704700BF00380140024B5A68AE
:100A1800024B1B681A70704700380140180100200B
:100A280008B50B4B1B6823B10A4B1B6813F0800FEA
:100A380008D1094B1B6823B1064B1B6813F0200F24
:100A480003D108BDFFF7CAFFF3E7FFF7DFFFF8E7B9
:100A58001C010020003801401801002008B5FFF7EC
:100A680075FE40210220FFF7AFFE4C210220FFF760
:100A7800ABFE092211460020FFF7D4FE08220A2106
:100A88000020FFF7CFFE012200210846FFF7CAFE2B
:100A9800002211461046FFF737FFFFF7BBFE08BDDF
:100AA80008B5FFF7DBFFFFF763FF0FE00122002126
:100AB8000846FFF729FF10E0002211461046FFF70D
:100AC80023FF0EE00133084A9342FBD96420FFF765
:100AD8007BFFFFF78FFF6128E8D0FFF78BFF6228C5
:100AE800EAD00023EFE700BF9F860100014B18689A
:100AF800704700BF2000002030B51446002C054682
:100B08001A469BB005DA8B2303604FF0FF301BB009
:100B180030BD4FF40273ADF80C300CBF234604F11E
:100B2800FF33029305934FF6FF7300910491ADF8DC
:100B38000E3069461E9B00F075F8431CBCBF8B2322
:100B48002B60002CE3D00022009B1A70DFE7000026
:100B580007B5009313460A46014603480068FFF7A5
:100B6800CBFF03B05DF804FB200000202DE9F0471F
:100B78008E6882469E420C4690461F4638D88A891F
:100B880012F4906F32D0256809690133A5EB010989
:100B980065694B4405EB450505EBD5756D109D4220
:100BA80038BF1D46530531D5294600F06FFB064670
:100BB80050B90C234FF0FF30CAF80030A38943F036
:100BC8004003A381BDE8F0874A46216900F0CEFAC8
:100BD800A38923F4906343F08003A38126614E44E4
:100BE80026603E466561A5EB0905A560BE4200D9B1
:100BF8003E4632464146206800F0C6FAA368002007
:100C08009B1BA360236833442360DBE72A4600F07C
:100C1800B1FB06460028E1D15046216900F0CEFA22
:100C2800C7E700002DE9F04F98468B8907461B0659
:100C38000D4614469DB00ED50B6963B9402100F0EE
:100C480025FB2860286120B90C233B604FF0FF305A
:100C5800D1E040236B610023099320238DF82930CC
:100C680030234FF00109CDF80C80DFF8A4818DF80E
:100C78002A3023469A4613F8012B0AB1252AF9D1BE
:100C8800BAEB040B0BD05B46224629463846FFF7E1
:100C98006DFF013000F0AA80099A5A4409929AF827
:100CA8000030002B00F0A28000234FF0FF32CDE986
:100CB80005230AF1010A049307938DF853301A9318
:100CC8005446052214F8011B514800F041FA049AD1
:100CD800D8B9D00644BF20238DF85330110744BF3C
:100CE8002B238DF853309AF800302A2B15D0544610
:100CF80000204FF00A0C079A214611F8013B303BBF
:100D0800092B4ED9B0B1079214E0A0EB080309FAF9
:100D180003F31343A2460493D2E7039B191D1B68F0
:100D28000391002BBBBF5B4242F00202079307937B
:100D3800B8BF049223782E2B0CD163782A2B35D197
:100D4800039B02341A1D1B680392002BB8BF4FF097
:100D5800FF330593DFF8BCA003225046217800F04A
:100D6800F7F940B14023A0EB0A0003FA00F0049B16
:100D780001340343049314F8011B062226488DF816
:100D8800281000F0E5F9002838D0244B1BBB039B42
:100D9800073323F0070308330393099B334409936C
:100DA80067E70C4601200CFB0232A5E700234FF051
:100DB8000A0C194601340593204610F8012B303AE5
:100DC800092A03D9002BC5D00591C3E7044601239E
:100DD8000CFB0121F0E703AB00932A463846104B81
:100DE80004A9AFF30080421C0646D6D1AB895B0646
:100DF8003FF52CAF09981DB0BDE8F08F03AB009309
:100E08002A463846064B04A900F07CF8EBE700BFF9
:100E18006E15000874150008781500080000000019
:100E2800750B00082DE9F047164699468A680B6944
:100E380007469342B8BF1346336091F843200C46E7
:100E4800DDF820800AB1013333602368990642BF78
:100E5800336802333360256815F0060506D104F1BE
:100E6800190AE36832689B1AAB4228DC94F84320DD
:100E7800131E226818BF012392062DD4494638460E
:100E880004F14302C047013020D02368E56803F02D
:100E98000603042B18BF002532684FF00006A3682C
:100EA80008BFAD1A226908BF25EAE5759342C4BF99
:100EB8009B1AED181A34B5421AD1002008E0012314
:100EC800524649463846C047013003D14FF0FF30FB
:100ED800BDE8F0870135C4E73020E11881F8430008
:100EE8005A1C94F845102244023382F84310C5E78F
:100EF8000123224649463846C0470130E6D001362C
:100F0800D9E700002DE9FF470F7E9146782F8046EC
:100F18000C469A460C9D01F1430207D8622F0AD865
:100F2800002F00F0D980582F00F0A48004F142056A
:100F380084F842703AE0A7F16303152BF6D801A1B3
:100F480051F823F0A50F0008B90F0008350F000865
:100F5800350F0008350F0008350F0008B90F0008D5
:100F6800350F0008350F0008350F0008350F000849
:100F7800C7100008E90F0008A9100008350F00087D
:100F8800350F0008E9100008350F0008E90F0008C0
:100F9800350F0008350F0008B11000082B681A1D1E
:100FA8001B682A6004F1420584F842300123A4E05A
:100FB80020682968060601F104030AD50E682B602B
:100FC800002E03DA2D23764284F843300A235E4844
:100FD80019E00E6810F0400F2B6018BF36B2EFE72B
:100FE8002B682068191D2960010601D51E6802E0DA
:100FF8004606FBD51E886F2F0CBF08230A235248CC
:10100800002184F843106568002DA8BF2168A560F9
:10101800A4BF21F0040121600EB9002D4DD0154662
:10102800B6FBF3F103FB1167C75D05F8017D374691
:10103800BB420E46F4D9082B0BD12368DE0708D52E
:10104800236961689942DEBF302305F8013C05F148
:10105800FF35521B22614B4621464046CDF800A081
:1010680003AAFFF7DFFE01304CD14FF0FF3004B088
:10107800BDE8F087344881F845702968236851F83D
:10108800046B29601D0614D5DF0744BF43F0200315
:1010980023601EB9236823F0200323601023AFE7E1
:1010A800236843F0200323607823284884F84530D8
:1010B800E3E7590648BFB6B2E6E71546BBE72B6833
:1010C8002668181D6169286035061B6801D51960F6
:1010D80002E07006FBD51980002315462361BAE7A4
:1010E8002B6800211A1D2A601D686268284600F0D6
:1010F8002FF808B1401B606063682361002384F8FF
:101108004330A8E72A46494640462369D04701307C
:10111800ABD023689B0713D4E068039B9842B8BF01
:101128001846A4E70123324649464046D0470130D5
:101138009BD00135E36803995B1AAB42F2DCEBE71D
:10114800002504F11906F5E77F1500089015000839
:10115800034610B5C9B202449342184601D1002093
:1011680003E0047801338C42F6D110BD0A44914261
:1011780000F1FF3300D1704710B511F8014B9142CF
:1011880003F8014FF9D110BD884210B501EB0204F4
:1011980002D98442234607D8431EA14208D011F839
:1011A800012B03F8012FF8E7014602448A4200D1D7
:1011B80010BD13F8014D02F8014DF7E738B50546A3
:1011C800002940D051F8043C0C1F002BB8BFE4188C
:1011D80000F010F91C4A136833B96360146028469C
:1011E800BDE8384000F00CB9A34208D9206821189E
:1011F8008B4201BF19685B6809182160EDE71A4640
:101208005B680BB1A342FAD911685018A0420BD100
:1012180020680144501883421160E0D118685B6867
:10122800014411605360DAE702D90C232B60D6E73A
:10123800206821188B4201BF19685B680918216072
:1012480063605460CBE738BD2001002070B50E4EB6
:101258000C463168054611B900F0BCF830602146EB
:10126800284600F0B7F8431C0AD0C41C24F0030435
:10127800A04207D0211A284600F0ACF8013001D16D
:101288004FF0FF34204670BD240100202DE9F041C5
:10129800CD1C25F0030508350C2D38BF0C25002D75
:1012A800074601DBA94205D90C2300263B603046DE
:1012B800BDE8F0812E4E00F09DF833681C4634BB23
:1012C80029463846FFF7C2FF431C04464DD134680F
:1012D8002646002E40D123683146384604EB0308E1
:1012E80000F078F880453AD1216803356D1A25F069
:1012F800030508350C2D38BF0C2538462946FFF75D
:10130800A5FF01302BD023682B4423600EE0226810
:10131800521B1ED40B2A16D96119A342256018BF87
:101328005960636808BF316062514B60384604F108
:101338000B0600F065F826F00706231DF21AB6D052
:101348009B1BA350B3E76268A3420CBF32605A608C
:10135800ECE723466468B2E734467668B9E70C23BD
:1013680038463B6000F04CF8A1E72560DEE700BF97
:10137800200100202DE9F041804614460E4621B98F
:101388001146BDE8F041FFF781BF2AB9FFF716FF04
:1013980025462846BDE8F08100F038F88442074623
:1013A80002D8B4EB500F12D821464046FFF76EFF23
:1013B80005460028EDD0BC422246314628BF3A46B1
:1013C800FFF7D4FE31464046FFF7F8FEE1E7354621
:1013D800DFE7000038B50023054D044608462B60BA
:1013E800FEF7C8FF431C02D12B6803B1236038BD48
:1013F80090000020014800F011B800BF280100202B
:10140800014800F00CB800BF2801002051F8043C46
:10141800181F002BBCBF0B58C01870477047704787
:10142800537461636B206672616D653A0A0000004F
:10143800205230203D2020253038580A0000000076
:10144800205231203D2020253038580A0000000065
:10145800205232203D2020253038580A0000000054
:10146800205233203D2020253038580A0000000043
:1014780020523132203D20253038580A0000000023
:10148800204C52203D2020253038580A000000000A
:10149800205043203D2020253038580A0000000005
:1014A80020505352203D20253038580A00000000B3
:1014B8004653522F4641523A0A00000020434653F1
:1014C80052203D2020253038580A00002048465335
:1014D80052203D2020253038580A00002044465329
:1014E80052203D2020253038580A0000204146531C
:1014F80052203D2020253038580A0000204D4D4606
:101508004152203D20253038580A000020424641EB
:1015180052203D2020253038580A00004D69736359
:101528000A000000204C522F4558435F524554553D
:10153800524E3D20253038580A0000005B48617241
:10154800644661756C745D0A000000005B42757347
:101558004661756C745D0A005B5573616765466129
:10156800756C745D0A00232D302B2000686C4C00CC
:10157800656667454647003031323334353637388B
:1015880039414243444546003031323334353637E9
:0915980038396162636465660084
:1015A400785634129400002000000000000000006F
:1015B40000000000010203040607080900A24A040F
:1015C40024000020000000000000000000000000D3
:1015D4000000000000000000000000000000000007
:1015E40000000000000000000000000000000000F7
:1015F40000000000000000000000000000000000E7
:1016040000000000000000000000000000000000D6
:1016140000000000000000000000000000000000C6
:0816240000000000325476982A
:040000050800010DE1
:00000001FF
